{"abi":[{"type":"constructor","inputs":[],"stateMutability":"nonpayable"},{"type":"receive","stateMutability":"payable"},{"type":"function","name":"PAY_INTERVAL","inputs":[],"outputs":[{"name":"","type":"uint256","internalType":"uint256"}],"stateMutability":"view"},{"type":"function","name":"addEmployee","inputs":[{"name":"_wallet","type":"address","internalType":"address"},{"name":"_name","type":"string","internalType":"string"},{"name":"_salary","type":"uint256","internalType":"uint256"}],"outputs":[],"stateMutability":"nonpayable"},{"type":"function","name":"claimSalary","inputs":[],"outputs":[],"stateMutability":"nonpayable"},{"type":"function","name":"employeeList","inputs":[{"name":"","type":"uint256","internalType":"uint256"}],"outputs":[{"name":"","type":"address","internalType":"address"}],"stateMutability":"view"},{"type":"function","name":"employees","inputs":[{"name":"","type":"address","internalType":"address"}],"outputs":[{"name":"name","type":"string","internalType":"string"},{"name":"salary","type":"uint256","internalType":"uint256"},{"name":"lastPaid","type":"uint256","internalType":"uint256"},{"name":"isActive","type":"bool","internalType":"bool"},{"name":"exists","type":"bool","internalType":"bool"}],"stateMutability":"view"},{"type":"function","name":"getContractBalance","inputs":[],"outputs":[{"name":"","type":"uint256","internalType":"uint256"}],"stateMutability":"view"},{"type":"function","name":"getEmployeeCount","inputs":[],"outputs":[{"name":"","type":"uint256","internalType":"uint256"}],"stateMutability":"view"},{"type":"function","name":"owner","inputs":[],"outputs":[{"name":"","type":"address","internalType":"address"}],"stateMutability":"view"},{"type":"function","name":"removeEmployee","inputs":[{"name":"_wallet","type":"address","internalType":"address"}],"outputs":[],"stateMutability":"nonpayable"},{"type":"function","name":"renounceOwnership","inputs":[],"outputs":[],"stateMutability":"nonpayable"},{"type":"function","name":"transferOwnership","inputs":[{"name":"newOwner","type":"address","internalType":"address"}],"outputs":[],"stateMutability":"nonpayable"},{"type":"function","name":"updateSalary","inputs":[{"name":"_wallet","type":"address","internalType":"address"},{"name":"_newSalary","type":"uint256","internalType":"uint256"}],"outputs":[],"stateMutability":"nonpayable"},{"type":"event","name":"EmployeeAdded","inputs":[{"name":"wallet","type":"address","indexed":true,"internalType":"address"},{"name":"salary","type":"uint256","indexed":false,"internalType":"uint256"}],"anonymous":false},{"type":"event","name":"EmployeeRemoved","inputs":[{"name":"wallet","type":"address","indexed":true,"internalType":"address"}],"anonymous":false},{"type":"event","name":"FundsDeposited","inputs":[{"name":"sender","type":"address","indexed":true,"internalType":"address"},{"name":"amount","type":"uint256","indexed":false,"internalType":"uint256"}],"anonymous":false},{"type":"event","name":"OwnershipTransferred","inputs":[{"name":"previousOwner","type":"address","indexed":true,"internalType":"address"},{"name":"newOwner","type":"address","indexed":true,"internalType":"address"}],"anonymous":false},{"type":"event","name":"SalaryClaimed","inputs":[{"name":"wallet","type":"address","indexed":true,"internalType":"address"},{"name":"amount","type":"uint256","indexed":false,"internalType":"uint256"}],"anonymous":false},{"type":"error","name":"FailedCall","inputs":[]},{"type":"error","name":"InsufficientBalance","inputs":[{"name":"balance","type":"uint256","internalType":"uint256"},{"name":"needed","type":"uint256","internalType":"uint256"}]},{"type":"error","name":"OwnableInvalidOwner","inputs":[{"name":"owner","type":"address","internalType":"address"}]},{"type":"error","name":"OwnableUnauthorizedAccount","inputs":[{"name":"account","type":"address","internalType":"address"}]},{"type":"error","name":"ReentrancyGuardReentrantCall","inputs":[]}],"bytecode":{"object":"0x608060405234801561000f575f5ffd5b50335f73ffffffffffffffffffffffffffffffffffffffff168173ffffffffffffffffffffffffffffffffffffffff1603610081575f6040517f1e4fbdf700000000000000000000000000000000000000000000000000000000815260040161007891906101ec565b60405180910390fd5b610090816100ba60201b60201c565b5060016100af6100a461017b60201b60201c565b6101a460201b60201c565b5f0181905550610205565b5f5f5f9054906101000a900473ffffffffffffffffffffffffffffffffffffffff169050815f5f6101000a81548173ffffffffffffffffffffffffffffffffffffffff021916908373ffffffffffffffffffffffffffffffffffffffff1602179055508173ffffffffffffffffffffffffffffffffffffffff168173ffffffffffffffffffffffffffffffffffffffff167f8be0079c531659141344cd1fd0a4f28419497f9722a3daafe3b4186f6b6457e060405160405180910390a35050565b5f7f9b779b17422d0df92223018b32b4d1fa46e071723d6817e2486d003becc55f005f1b905090565b5f819050919050565b5f73ffffffffffffffffffffffffffffffffffffffff82169050919050565b5f6101d6826101ad565b9050919050565b6101e6816101cc565b82525050565b5f6020820190506101ff5f8301846101dd565b92915050565b6118f0806102125f395ff3fe6080604052600436106100aa575f3560e01c8063c2a63e3b11610063578063c2a63e3b146101e7578063c3b2d07a14610211578063d06789471461024d578063d108177a1461028d578063d7b92d45146102b5578063f2fde38b146102cb576100ff565b806322003f101461010357806328f7aa361461012b5780636f9fb98a14610153578063715018a61461017d57806378dbb12b146101935780638da5cb5b146101bd576100ff565b366100ff573373ffffffffffffffffffffffffffffffffffffffff167f543ba50a5eec5e6178218e364b1d0f396157b3c8fa278522c2cb7fd99407d474346040516100f59190610eab565b60405180910390a2005b5f5ffd5b34801561010e575f5ffd5b5061012960048036038101906101249190610f59565b6102f3565b005b348015610136575f5ffd5b50610151600480360381019061014c91906110d3565b6103d1565b005b34801561015e575f5ffd5b5061016761069e565b6040516101749190610eab565b60405180910390f35b348015610188575f5ffd5b506101916106a5565b005b34801561019e575f5ffd5b506101a76106b8565b6040516101b49190610eab565b60405180910390f35b3480156101c8575f5ffd5b506101d16106bf565b6040516101de919061114e565b60405180910390f35b3480156101f2575f5ffd5b506101fb6106e6565b6040516102089190610eab565b60405180910390f35b34801561021c575f5ffd5b5061023760048036038101906102329190611167565b6106f2565b604051610244919061114e565b60405180910390f35b348015610258575f5ffd5b50610273600480360381019061026e9190611192565b61072d565b604051610284959493929190611237565b60405180910390f35b348015610298575f5ffd5b506102b360048036038101906102ae9190611192565b6107fe565b005b3480156102c0575f5ffd5b506102c9610930565b005b3480156102d6575f5ffd5b506102f160048036038101906102ec9190611192565b610b16565b005b6102fb610b9a565b60015f8373ffffffffffffffffffffffffffffffffffffffff1673ffffffffffffffffffffffffffffffffffffffff1681526020019081526020015f2060030160019054906101000a900460ff16610388576040517f08c379a000000000000000000000000000000000000000000000000000000000815260040161037f906112d9565b60405180910390fd5b8060015f8473ffffffffffffffffffffffffffffffffffffffff1673ffffffffffffffffffffffffffffffffffffffff1681526020019081526020015f20600101819055505050565b6103d9610b9a565b5f73ffffffffffffffffffffffffffffffffffffffff168373ffffffffffffffffffffffffffffffffffffffff1603610447576040517f08c379a000000000000000000000000000000000000000000000000000000000815260040161043e90611341565b60405180910390fd5b60015f8473ffffffffffffffffffffffffffffffffffffffff1673ffffffffffffffffffffffffffffffffffffffff1681526020019081526020015f2060030160019054906101000a900460ff16156104d5576040517f08c379a00000000000000000000000000000000000000000000000000000000081526004016104cc906113a9565b60405180910390fd5b5f8111610517576040517f08c379a000000000000000000000000000000000000000000000000000000000815260040161050e90611411565b60405180910390fd5b6040518060a001604052808381526020018281526020014281526020016001151581526020016001151581525060015f8573ffffffffffffffffffffffffffffffffffffffff1673ffffffffffffffffffffffffffffffffffffffff1681526020019081526020015f205f820151815f019081610594919061162c565b5060208201518160010155604082015181600201556060820151816003015f6101000a81548160ff02191690831515021790555060808201518160030160016101000a81548160ff021916908315150217905550905050600283908060018154018082558091505060019003905f5260205f20015f9091909190916101000a81548173ffffffffffffffffffffffffffffffffffffffff021916908373ffffffffffffffffffffffffffffffffffffffff1602179055508273ffffffffffffffffffffffffffffffffffffffff167fbe7f6b46c4532a5c90b0500f056ec43ad5e7ac8c4d410c5351ea9a4a4bed2a0a826040516106919190610eab565b60405180910390a2505050565b5f47905090565b6106ad610b9a565b6106b65f610c21565b565b62278d0081565b5f5f5f9054906101000a900473ffffffffffffffffffffffffffffffffffffffff16905090565b5f600280549050905090565b60028181548110610701575f80fd5b905f5260205f20015f915054906101000a900473ffffffffffffffffffffffffffffffffffffffff1681565b6001602052805f5260405f205f91509050805f01805461074c9061145c565b80601f01602080910402602001604051908101604052809291908181526020018280546107789061145c565b80156107c35780601f1061079a576101008083540402835291602001916107c3565b820191905f5260205f20905b8154815290600101906020018083116107a657829003601f168201915b505050505090806001015490806002015490806003015f9054906101000a900460ff16908060030160019054906101000a900460ff16905085565b610806610b9a565b60015f8273ffffffffffffffffffffffffffffffffffffffff1673ffffffffffffffffffffffffffffffffffffffff1681526020019081526020015f2060030160019054906101000a900460ff16610893576040517f08c379a000000000000000000000000000000000000000000000000000000000815260040161088a906112d9565b60405180910390fd5b5f60015f8373ffffffffffffffffffffffffffffffffffffffff1673ffffffffffffffffffffffffffffffffffffffff1681526020019081526020015f206003015f6101000a81548160ff0219169083151502179055508073ffffffffffffffffffffffffffffffffffffffff167fabae6e64cb4315875c29d42347a312f5e9fce4ab564e9722b43dd78d0751135a60405160405180910390a250565b610938610ce2565b5f60015f3373ffffffffffffffffffffffffffffffffffffffff1673ffffffffffffffffffffffffffffffffffffffff1681526020019081526020015f2090508060030160019054906101000a900460ff1680156109a35750806003015f9054906101000a900460ff165b6109e2576040517f08c379a00000000000000000000000000000000000000000000000000000000081526004016109d990611745565b60405180910390fd5b62278d0081600201546109f59190611790565b421015610a37576040517f08c379a0000000000000000000000000000000000000000000000000000000008152600401610a2e9061180d565b60405180910390fd5b5f4790508160010154811015610a82576040517f08c379a0000000000000000000000000000000000000000000000000000000008152600401610a7990611875565b60405180910390fd5b428260020181905550610ab882600101543373ffffffffffffffffffffffffffffffffffffffff16610d0490919063ffffffff16565b3373ffffffffffffffffffffffffffffffffffffffff167f07b0f419660716c996d55c94e77e89f46ad73e2952dd7affd063f8b8781c9e4c8360010154604051610b029190610eab565b60405180910390a25050610b14610dbb565b565b610b1e610b9a565b5f73ffffffffffffffffffffffffffffffffffffffff168173ffffffffffffffffffffffffffffffffffffffff1603610b8e575f6040517f1e4fbdf7000000000000000000000000000000000000000000000000000000008152600401610b85919061114e565b60405180910390fd5b610b9781610c21565b50565b610ba2610dd5565b73ffffffffffffffffffffffffffffffffffffffff16610bc06106bf565b73ffffffffffffffffffffffffffffffffffffffff1614610c1f57610be3610dd5565b6040517f118cdaa7000000000000000000000000000000000000000000000000000000008152600401610c16919061114e565b60405180910390fd5b565b5f5f5f9054906101000a900473ffffffffffffffffffffffffffffffffffffffff169050815f5f6101000a81548173ffffffffffffffffffffffffffffffffffffffff021916908373ffffffffffffffffffffffffffffffffffffffff1602179055508173ffffffffffffffffffffffffffffffffffffffff168173ffffffffffffffffffffffffffffffffffffffff167f8be0079c531659141344cd1fd0a4f28419497f9722a3daafe3b4186f6b6457e060405160405180910390a35050565b610cea610ddc565b6002610cfc610cf7610e1d565b610e46565b5f0181905550565b80471015610d4b5747816040517fcf479181000000000000000000000000000000000000000000000000000000008152600401610d42929190611893565b60405180910390fd5b610d64828260405180602001604052805f815250610e4f565b610db7575f610d71610e65565b1115610d8457610d7f610e6c565b610db6565b6040517fd6bda27500000000000000000000000000000000000000000000000000000000815260040160405180910390fd5b5b5050565b6001610dcd610dc8610e1d565b610e46565b5f0181905550565b5f33905090565b610de4610e77565b15610e1b576040517f3ee5aeb500000000000000000000000000000000000000000000000000000000815260040160405180910390fd5b565b5f7f9b779b17422d0df92223018b32b4d1fa46e071723d6817e2486d003becc55f005f1b905090565b5f819050919050565b5f5f5f83516020850186885af190509392505050565b5f3d905090565b6040513d5f823e3d81fd5b5f6002610e8a610e85610e1d565b610e46565b5f015414905090565b5f819050919050565b610ea581610e93565b82525050565b5f602082019050610ebe5f830184610e9c565b92915050565b5f604051905090565b5f5ffd5b5f5ffd5b5f73ffffffffffffffffffffffffffffffffffffffff82169050919050565b5f610efe82610ed5565b9050919050565b610f0e81610ef4565b8114610f18575f5ffd5b50565b5f81359050610f2981610f05565b92915050565b610f3881610e93565b8114610f42575f5ffd5b50565b5f81359050610f5381610f2f565b92915050565b5f5f60408385031215610f6f57610f6e610ecd565b5b5f610f7c85828601610f1b565b9250506020610f8d85828601610f45565b9150509250929050565b5f5ffd5b5f5ffd5b5f601f19601f8301169050919050565b7f4e487b71000000000000000000000000000000000000000000000000000000005f52604160045260245ffd5b610fe582610f9f565b810181811067ffffffffffffffff8211171561100457611003610faf565b5b80604052505050565b5f611016610ec4565b90506110228282610fdc565b919050565b5f67ffffffffffffffff82111561104157611040610faf565b5b61104a82610f9f565b9050602081019050919050565b828183375f83830152505050565b5f61107761107284611027565b61100d565b90508281526020810184848401111561109357611092610f9b565b5b61109e848285611057565b509392505050565b5f82601f8301126110ba576110b9610f97565b5b81356110ca848260208601611065565b91505092915050565b5f5f5f606084860312156110ea576110e9610ecd565b5b5f6110f786828701610f1b565b935050602084013567ffffffffffffffff81111561111857611117610ed1565b5b611124868287016110a6565b925050604061113586828701610f45565b9150509250925092565b61114881610ef4565b82525050565b5f6020820190506111615f83018461113f565b92915050565b5f6020828403121561117c5761117b610ecd565b5b5f61118984828501610f45565b91505092915050565b5f602082840312156111a7576111a6610ecd565b5b5f6111b484828501610f1b565b91505092915050565b5f81519050919050565b5f82825260208201905092915050565b8281835e5f83830152505050565b5f6111ef826111bd565b6111f981856111c7565b93506112098185602086016111d7565b61121281610f9f565b840191505092915050565b5f8115159050919050565b6112318161121d565b82525050565b5f60a0820190508181035f83015261124f81886111e5565b905061125e6020830187610e9c565b61126b6040830186610e9c565b6112786060830185611228565b6112856080830184611228565b9695505050505050565b7f4e6f7420616e20656d706c6f79656500000000000000000000000000000000005f82015250565b5f6112c3600f836111c7565b91506112ce8261128f565b602082019050919050565b5f6020820190508181035f8301526112f0816112b7565b9050919050565b7f496e76616c6964206164647265737300000000000000000000000000000000005f82015250565b5f61132b600f836111c7565b9150611336826112f7565b602082019050919050565b5f6020820190508181035f8301526113588161131f565b9050919050565b7f416c7265616479206578697374730000000000000000000000000000000000005f82015250565b5f611393600e836111c7565b915061139e8261135f565b602082019050919050565b5f6020820190508181035f8301526113c081611387565b9050919050565b7f53616c617279206d757374206265203e203000000000000000000000000000005f82015250565b5f6113fb6012836111c7565b9150611406826113c7565b602082019050919050565b5f6020820190508181035f830152611428816113ef565b9050919050565b7f4e487b71000000000000000000000000000000000000000000000000000000005f52602260045260245ffd5b5f600282049050600182168061147357607f821691505b6020821081036114865761148561142f565b5b50919050565b5f819050815f5260205f209050919050565b5f6020601f8301049050919050565b5f82821b905092915050565b5f600883026114e87fffffffffffffffffffffffffffffffffffffffffffffffffffffffffffffffff826114ad565b6114f286836114ad565b95508019841693508086168417925050509392505050565b5f819050919050565b5f61152d61152861152384610e93565b61150a565b610e93565b9050919050565b5f819050919050565b61154683611513565b61155a61155282611534565b8484546114b9565b825550505050565b5f5f905090565b611571611562565b61157c81848461153d565b505050565b5b8181101561159f576115945f82611569565b600181019050611582565b5050565b601f8211156115e4576115b58161148c565b6115be8461149e565b810160208510156115cd578190505b6115e16115d98561149e565b830182611581565b50505b505050565b5f82821c905092915050565b5f6116045f19846008026115e9565b1980831691505092915050565b5f61161c83836115f5565b9150826002028217905092915050565b611635826111bd565b67ffffffffffffffff81111561164e5761164d610faf565b5b611658825461145c565b6116638282856115a3565b5f60209050601f831160018114611694575f8415611682578287015190505b61168c8582611611565b8655506116f3565b601f1984166116a28661148c565b5f5b828110156116c9578489015182556001820191506020850194506020810190506116a4565b868310156116e657848901516116e2601f8916826115f5565b8355505b6001600288020188555050505b505050505050565b7f4e6f7420616e2061637469766520656d706c6f796565000000000000000000005f82015250565b5f61172f6016836111c7565b915061173a826116fb565b602082019050919050565b5f6020820190508181035f83015261175c81611723565b9050919050565b7f4e487b71000000000000000000000000000000000000000000000000000000005f52601160045260245ffd5b5f61179a82610e93565b91506117a583610e93565b92508282019050808211156117bd576117bc611763565b5b92915050565b7f546f6f206561726c7920746f20636c61696d00000000000000000000000000005f82015250565b5f6117f76012836111c7565b9150611802826117c3565b602082019050919050565b5f6020820190508181035f830152611824816117eb565b9050919050565b7f436f6e74726163742068617320696e73756666696369656e742066756e6473005f82015250565b5f61185f601f836111c7565b915061186a8261182b565b602082019050919050565b5f6020820190508181035f83015261188c81611853565b9050919050565b5f6040820190506118a65f830185610e9c565b6118b36020830184610e9c565b939250505056fea2646970667358221220ca44c864a56c47b312cf7739c5081a87dbca2bf160d9cd2169afb2c8a23f217f64736f6c634300081e0033","linkReferences":{}},"methodIdentifiers":{"PAY_INTERVAL()":"78dbb12b","addEmployee(address,string,uint256)":"28f7aa36","claimSalary()":"d7b92d45","employeeList(uint256)":"c3b2d07a","employees(address)":"d0678947","getContractBalance()":"6f9fb98a","getEmployeeCount()":"c2a63e3b","owner()":"8da5cb5b","removeEmployee(address)":"d108177a","renounceOwnership()":"715018a6","transferOwnership(address)":"f2fde38b","updateSalary(address,uint256)":"22003f10"},"id":23}